{
  "_format": "hh-sol-artifact-1",
  "contractName": "TodoList",
  "sourceName": "contracts/TodoList.sol",
  "abi": [
    {
      "inputs": [
        {
          "internalType": "string",
          "name": "_listName",
          "type": "string"
        }
      ],
      "name": "addList",
      "outputs": [],
      "stateMutability": "nonpayable",
      "type": "function"
    },
    {
      "inputs": [
        {
          "internalType": "string",
          "name": "_listName",
          "type": "string"
        },
        {
          "components": [
            {
              "internalType": "string",
              "name": "text",
              "type": "string"
            },
            {
              "internalType": "bool",
              "name": "done",
              "type": "bool"
            }
          ],
          "internalType": "struct TodoList.Task[]",
          "name": "_tasks",
          "type": "tuple[]"
        }
      ],
      "name": "addUpdateTasks",
      "outputs": [],
      "stateMutability": "nonpayable",
      "type": "function"
    },
    {
      "inputs": [
        {
          "internalType": "address",
          "name": "",
          "type": "address"
        },
        {
          "internalType": "uint256",
          "name": "",
          "type": "uint256"
        }
      ],
      "name": "addressToListsMapping",
      "outputs": [
        {
          "internalType": "string",
          "name": "",
          "type": "string"
        }
      ],
      "stateMutability": "view",
      "type": "function"
    },
    {
      "inputs": [
        {
          "internalType": "address",
          "name": "",
          "type": "address"
        },
        {
          "internalType": "string",
          "name": "",
          "type": "string"
        },
        {
          "internalType": "uint256",
          "name": "",
          "type": "uint256"
        }
      ],
      "name": "addressToListsToTasksMapping",
      "outputs": [
        {
          "internalType": "string",
          "name": "text",
          "type": "string"
        },
        {
          "internalType": "bool",
          "name": "done",
          "type": "bool"
        }
      ],
      "stateMutability": "view",
      "type": "function"
    },
    {
      "inputs": [],
      "name": "getLists",
      "outputs": [
        {
          "internalType": "string[]",
          "name": "",
          "type": "string[]"
        }
      ],
      "stateMutability": "view",
      "type": "function"
    },
    {
      "inputs": [
        {
          "internalType": "string",
          "name": "_listName",
          "type": "string"
        }
      ],
      "name": "getTasks",
      "outputs": [
        {
          "components": [
            {
              "internalType": "string",
              "name": "text",
              "type": "string"
            },
            {
              "internalType": "bool",
              "name": "done",
              "type": "bool"
            }
          ],
          "internalType": "struct TodoList.Task[]",
          "name": "",
          "type": "tuple[]"
        }
      ],
      "stateMutability": "view",
      "type": "function"
    }
  ],
  "bytecode": "0x608060405234801561001057600080fd5b506112be806100206000396000f3fe608060405234801561001057600080fd5b50600436106100625760003560e01c806302209d961461006757806335643b431461008357806344a853fc146100b35780636ff13501146100e3578063b0fcee28146100ff578063cb4b090914610130575b600080fd5b610081600480360381019061007c9190610ba5565b61014e565b005b61009d60048036038101906100989190610ba5565b6101ca565b6040516100aa9190610e9b565b60405180910390f35b6100cd60048036038101906100c89190610b69565b610331565b6040516100da9190610ebd565b60405180910390f35b6100fd60048036038101906100f89190610be6565b6103ea565b005b61011960048036038101906101149190610b02565b610679565b604051610127929190610edf565b60405180910390f35b610138610772565b6040516101459190610e79565b60405180910390f35b600160003373ffffffffffffffffffffffffffffffffffffffff1673ffffffffffffffffffffffffffffffffffffffff168152602001908152602001600020819080600181540180825580915050600190039060005260206000200160009091909190915090805190602001906101c6929190610888565b5050565b6060600260003373ffffffffffffffffffffffffffffffffffffffff1673ffffffffffffffffffffffffffffffffffffffff168152602001908152602001600020826040516102199190610e62565b9081526020016040518091039020805480602002602001604051908101604052809291908181526020016000905b82821015610326578382906000526020600020906002020160405180604001604052908160008201805461027a906110f9565b80601f01602080910402602001604051908101604052809291908181526020018280546102a6906110f9565b80156102f35780601f106102c8576101008083540402835291602001916102f3565b820191906000526020600020905b8154815290600101906020018083116102d657829003601f168201915b505050505081526020016001820160009054906101000a900460ff16151515158152505081526020019060010190610247565b505050509050919050565b6001602052816000526040600020818154811061034d57600080fd5b90600052602060002001600091509150508054610369906110f9565b80601f0160208091040260200160405190810160405280929190818152602001828054610395906110f9565b80156103e25780601f106103b7576101008083540402835291602001916103e2565b820191906000526020600020905b8154815290600101906020018083116103c557829003601f168201915b505050505081565b6000600260003373ffffffffffffffffffffffffffffffffffffffff1673ffffffffffffffffffffffffffffffffffffffff168152602001908152602001600020836040516104399190610e62565b9081526020016040518091039020905061045161090e565b60005b835181101561067257838181518110610496577f4e487b7100000000000000000000000000000000000000000000000000000000600052603260045260246000fd5b60200260200101516000015182600001819052508381815181106104e3577f4e487b7100000000000000000000000000000000000000000000000000000000600052603260045260246000fd5b6020026020010151602001518260200190151590811515815250506000838054905011801561052157506001838054905061051e919061103b565b81105b156105f4578160000151838281548110610564577f4e487b7100000000000000000000000000000000000000000000000000000000600052603260045260246000fd5b90600052602060002090600202016000019080519060200190610588929190610888565b5081602001518382815481106105c7577f4e487b7100000000000000000000000000000000000000000000000000000000600052603260045260246000fd5b906000526020600020906002020160010160006101000a81548160ff02191690831515021790555061065f565b82829080600181540180825580915050600190039060005260206000209060020201600090919091909150600082015181600001908051906020019061063b929190610888565b5060208201518160010160006101000a81548160ff02191690831515021790555050505b808061066a9061115c565b915050610454565b5050505050565b60026020528260005260406000208280516020810182018051848252602083016020850120818352809550505050505081815481106106b757600080fd5b906000526020600020906002020160009250925050508060000180546106dc906110f9565b80601f0160208091040260200160405190810160405280929190818152602001828054610708906110f9565b80156107555780601f1061072a57610100808354040283529160200191610755565b820191906000526020600020905b81548152906001019060200180831161073857829003601f168201915b5050505050908060010160009054906101000a900460ff16905082565b6060600160003373ffffffffffffffffffffffffffffffffffffffff1673ffffffffffffffffffffffffffffffffffffffff168152602001908152602001600020805480602002602001604051908101604052809291908181526020016000905b8282101561087f5783829060005260206000200180546107f2906110f9565b80601f016020809104026020016040519081016040528092919081815260200182805461081e906110f9565b801561086b5780601f106108405761010080835404028352916020019161086b565b820191906000526020600020905b81548152906001019060200180831161084e57829003601f168201915b5050505050815260200190600101906107d3565b50505050905090565b828054610894906110f9565b90600052602060002090601f0160209004810192826108b657600085556108fd565b82601f106108cf57805160ff19168380011785556108fd565b828001600101855582156108fd579182015b828111156108fc5782518255916020019190600101906108e1565b5b50905061090a919061092a565b5090565b6040518060400160405280606081526020016000151581525090565b5b8082111561094357600081600090555060010161092b565b5090565b600061095a61095584610f34565b610f0f565b9050808382526020820190508285602086028201111561097957600080fd5b60005b858110156109c357813567ffffffffffffffff81111561099b57600080fd5b8086016109a88982610a89565b8552602085019450602084019350505060018101905061097c565b5050509392505050565b60006109e06109db84610f60565b610f0f565b9050828152602081018484840111156109f857600080fd5b610a038482856110b7565b509392505050565b600081359050610a1a81611243565b92915050565b600082601f830112610a3157600080fd5b8135610a41848260208601610947565b91505092915050565b600081359050610a598161125a565b92915050565b600082601f830112610a7057600080fd5b8135610a808482602086016109cd565b91505092915050565b600060408284031215610a9b57600080fd5b610aa56040610f0f565b9050600082013567ffffffffffffffff811115610ac157600080fd5b610acd84828501610a5f565b6000830152506020610ae184828501610a4a565b60208301525092915050565b600081359050610afc81611271565b92915050565b600080600060608486031215610b1757600080fd5b6000610b2586828701610a0b565b935050602084013567ffffffffffffffff811115610b4257600080fd5b610b4e86828701610a5f565b9250506040610b5f86828701610aed565b9150509250925092565b60008060408385031215610b7c57600080fd5b6000610b8a85828601610a0b565b9250506020610b9b85828601610aed565b9150509250929050565b600060208284031215610bb757600080fd5b600082013567ffffffffffffffff811115610bd157600080fd5b610bdd84828501610a5f565b91505092915050565b60008060408385031215610bf957600080fd5b600083013567ffffffffffffffff811115610c1357600080fd5b610c1f85828601610a5f565b925050602083013567ffffffffffffffff811115610c3c57600080fd5b610c4885828601610a20565b9150509250929050565b6000610c5e8383610d82565b905092915050565b6000610c728383610e25565b905092915050565b6000610c8582610fb1565b610c8f8185610fec565b935083602082028501610ca185610f91565b8060005b85811015610cdd5784840389528151610cbe8582610c52565b9450610cc983610fd2565b925060208a01995050600181019050610ca5565b50829750879550505050505092915050565b6000610cfa82610fbc565b610d048185610ffd565b935083602082028501610d1685610fa1565b8060005b85811015610d525784840389528151610d338582610c66565b9450610d3e83610fdf565b925060208a01995050600181019050610d1a565b50829750879550505050505092915050565b610d6d81611081565b82525050565b610d7c81611081565b82525050565b6000610d8d82610fc7565b610d97818561100e565b9350610da78185602086016110c6565b610db081611232565b840191505092915050565b6000610dc682610fc7565b610dd0818561101f565b9350610de08185602086016110c6565b610de981611232565b840191505092915050565b6000610dff82610fc7565b610e098185611030565b9350610e198185602086016110c6565b80840191505092915050565b60006040830160008301518482036000860152610e428282610d82565b9150506020830151610e576020860182610d64565b508091505092915050565b6000610e6e8284610df4565b915081905092915050565b60006020820190508181036000830152610e938184610c7a565b905092915050565b60006020820190508181036000830152610eb58184610cef565b905092915050565b60006020820190508181036000830152610ed78184610dbb565b905092915050565b60006040820190508181036000830152610ef98185610dbb565b9050610f086020830184610d73565b9392505050565b6000610f19610f2a565b9050610f25828261112b565b919050565b6000604051905090565b600067ffffffffffffffff821115610f4f57610f4e611203565b5b602082029050602081019050919050565b600067ffffffffffffffff821115610f7b57610f7a611203565b5b610f8482611232565b9050602081019050919050565b6000819050602082019050919050565b6000819050602082019050919050565b600081519050919050565b600081519050919050565b600081519050919050565b6000602082019050919050565b6000602082019050919050565b600082825260208201905092915050565b600082825260208201905092915050565b600082825260208201905092915050565b600082825260208201905092915050565b600081905092915050565b6000611046826110ad565b9150611051836110ad565b925082821015611064576110636111a5565b5b828203905092915050565b600061107a8261108d565b9050919050565b60008115159050919050565b600073ffffffffffffffffffffffffffffffffffffffff82169050919050565b6000819050919050565b82818337600083830152505050565b60005b838110156110e45780820151818401526020810190506110c9565b838111156110f3576000848401525b50505050565b6000600282049050600182168061111157607f821691505b60208210811415611125576111246111d4565b5b50919050565b61113482611232565b810181811067ffffffffffffffff8211171561115357611152611203565b5b80604052505050565b6000611167826110ad565b91507fffffffffffffffffffffffffffffffffffffffffffffffffffffffffffffffff82141561119a576111996111a5565b5b600182019050919050565b7f4e487b7100000000000000000000000000000000000000000000000000000000600052601160045260246000fd5b7f4e487b7100000000000000000000000000000000000000000000000000000000600052602260045260246000fd5b7f4e487b7100000000000000000000000000000000000000000000000000000000600052604160045260246000fd5b6000601f19601f8301169050919050565b61124c8161106f565b811461125757600080fd5b50565b61126381611081565b811461126e57600080fd5b50565b61127a816110ad565b811461128557600080fd5b5056fea2646970667358221220837725f6eabebb72631fd7c0b9934cdfa07cbadcc2bb360d69b089932631aea464736f6c63430008040033",
  "linkReferences": {},
  "deployedLinkReferences": {}
}