{
  "_format": "hh-sol-artifact-1",
  "contractName": "TodoList",
  "sourceName": "contracts/TodoList.sol",
  "abi": [
    {
      "inputs": [
        {
          "internalType": "string",
          "name": "_listName",
          "type": "string"
        }
      ],
      "name": "addList",
      "outputs": [],
      "stateMutability": "nonpayable",
      "type": "function"
    },
    {
      "inputs": [
        {
          "internalType": "string",
          "name": "_listName",
          "type": "string"
        },
        {
          "components": [
            {
              "internalType": "string",
              "name": "text",
              "type": "string"
            },
            {
              "internalType": "bool",
              "name": "done",
              "type": "bool"
            }
          ],
          "internalType": "struct TodoList.Task[]",
          "name": "_tasks",
          "type": "tuple[]"
        }
      ],
      "name": "addUpdateTasks",
      "outputs": [],
      "stateMutability": "nonpayable",
      "type": "function"
    },
    {
      "inputs": [
        {
          "internalType": "address",
          "name": "",
          "type": "address"
        },
        {
          "internalType": "uint256",
          "name": "",
          "type": "uint256"
        }
      ],
      "name": "addressToListsMapping",
      "outputs": [
        {
          "internalType": "string",
          "name": "",
          "type": "string"
        }
      ],
      "stateMutability": "view",
      "type": "function"
    },
    {
      "inputs": [
        {
          "internalType": "address",
          "name": "",
          "type": "address"
        },
        {
          "internalType": "string",
          "name": "",
          "type": "string"
        },
        {
          "internalType": "uint256",
          "name": "",
          "type": "uint256"
        }
      ],
      "name": "addressToListsToTasksMapping",
      "outputs": [
        {
          "internalType": "string",
          "name": "text",
          "type": "string"
        },
        {
          "internalType": "bool",
          "name": "done",
          "type": "bool"
        }
      ],
      "stateMutability": "view",
      "type": "function"
    },
    {
      "inputs": [
        {
          "internalType": "string",
          "name": "_listName",
          "type": "string"
        },
        {
          "internalType": "uint256",
          "name": "index",
          "type": "uint256"
        }
      ],
      "name": "deleteList",
      "outputs": [],
      "stateMutability": "nonpayable",
      "type": "function"
    },
    {
      "inputs": [],
      "name": "getLists",
      "outputs": [
        {
          "internalType": "string[]",
          "name": "",
          "type": "string[]"
        }
      ],
      "stateMutability": "view",
      "type": "function"
    },
    {
      "inputs": [
        {
          "internalType": "string",
          "name": "_listName",
          "type": "string"
        }
      ],
      "name": "getTasks",
      "outputs": [
        {
          "components": [
            {
              "internalType": "string",
              "name": "text",
              "type": "string"
            },
            {
              "internalType": "bool",
              "name": "done",
              "type": "bool"
            }
          ],
          "internalType": "struct TodoList.Task[]",
          "name": "",
          "type": "tuple[]"
        }
      ],
      "stateMutability": "view",
      "type": "function"
    }
  ],
  "bytecode": "0x608060405234801561001057600080fd5b50611627806100206000396000f3fe608060405234801561001057600080fd5b506004361061007d5760003560e01c80636ff135011161005b5780636ff13501146100fe5780638e3318321461011a578063b0fcee2814610136578063cb4b0909146101675761007d565b806302209d961461008257806335643b431461009e57806344a853fc146100ce575b600080fd5b61009c60048036038101906100979190610eba565b610185565b005b6100b860048036038101906100b39190610eba565b610201565b6040516100c59190611204565b60405180910390f35b6100e860048036038101906100e39190610e7e565b610368565b6040516100f59190611226565b60405180910390f35b61011860048036038101906101139190610efb565b610421565b005b610134600480360381019061012f9190610f67565b6106b0565b005b610150600480360381019061014b9190610e17565b610862565b60405161015e929190611248565b60405180910390f35b61016f61095b565b60405161017c91906111e2565b60405180910390f35b600160003373ffffffffffffffffffffffffffffffffffffffff1673ffffffffffffffffffffffffffffffffffffffff168152602001908152602001600020819080600181540180825580915050600190039060005260206000200160009091909190915090805190602001906101fd929190610a71565b5050565b6060600260003373ffffffffffffffffffffffffffffffffffffffff1673ffffffffffffffffffffffffffffffffffffffff1681526020019081526020016000208260405161025091906111cb565b9081526020016040518091039020805480602002602001604051908101604052809291908181526020016000905b8282101561035d57838290600052602060002090600202016040518060400160405290816000820180546102b190611462565b80601f01602080910402602001604051908101604052809291908181526020018280546102dd90611462565b801561032a5780601f106102ff5761010080835404028352916020019161032a565b820191906000526020600020905b81548152906001019060200180831161030d57829003601f168201915b505050505081526020016001820160009054906101000a900460ff1615151515815250508152602001906001019061027e565b505050509050919050565b6001602052816000526040600020818154811061038457600080fd5b906000526020600020016000915091505080546103a090611462565b80601f01602080910402602001604051908101604052809291908181526020018280546103cc90611462565b80156104195780601f106103ee57610100808354040283529160200191610419565b820191906000526020600020905b8154815290600101906020018083116103fc57829003601f168201915b505050505081565b6000600260003373ffffffffffffffffffffffffffffffffffffffff1673ffffffffffffffffffffffffffffffffffffffff1681526020019081526020016000208360405161047091906111cb565b90815260200160405180910390209050610488610af7565b60005b83518110156106a9578381815181106104cd577f4e487b7100000000000000000000000000000000000000000000000000000000600052603260045260246000fd5b602002602001015160000151826000018190525083818151811061051a577f4e487b7100000000000000000000000000000000000000000000000000000000600052603260045260246000fd5b6020026020010151602001518260200190151590811515815250506000838054905011801561055857506001838054905061055591906113a4565b81105b1561062b57816000015183828154811061059b577f4e487b7100000000000000000000000000000000000000000000000000000000600052603260045260246000fd5b906000526020600020906002020160000190805190602001906105bf929190610a71565b5081602001518382815481106105fe577f4e487b7100000000000000000000000000000000000000000000000000000000600052603260045260246000fd5b906000526020600020906002020160010160006101000a81548160ff021916908315150217905550610696565b828290806001815401808255809150506001900390600052602060002090600202016000909190919091506000820151816000019080519060200190610672929190610a71565b5060208201518160010160006101000a81548160ff02191690831515021790555050505b80806106a1906114c5565b91505061048b565b5050505050565b6000600160003373ffffffffffffffffffffffffffffffffffffffff1673ffffffffffffffffffffffffffffffffffffffff1681526020019081526020016000209050806001828054905061070591906113a4565b8154811061073c577f4e487b7100000000000000000000000000000000000000000000000000000000600052603260045260246000fd5b9060005260206000200181838154811061077f577f4e487b7100000000000000000000000000000000000000000000000000000000600052603260045260246000fd5b9060005260206000200190805461079590611462565b6107a0929190610b13565b50808054806107d8577f4e487b7100000000000000000000000000000000000000000000000000000000600052603160045260246000fd5b6001900381819060005260206000200160006107f49190610ba0565b9055600260003373ffffffffffffffffffffffffffffffffffffffff1673ffffffffffffffffffffffffffffffffffffffff1681526020019081526020016000208360405161084391906111cb565b9081526020016040518091039020600061085d9190610be0565b505050565b60026020528260005260406000208280516020810182018051848252602083016020850120818352809550505050505081815481106108a057600080fd5b906000526020600020906002020160009250925050508060000180546108c590611462565b80601f01602080910402602001604051908101604052809291908181526020018280546108f190611462565b801561093e5780601f106109135761010080835404028352916020019161093e565b820191906000526020600020905b81548152906001019060200180831161092157829003601f168201915b5050505050908060010160009054906101000a900460ff16905082565b6060600160003373ffffffffffffffffffffffffffffffffffffffff1673ffffffffffffffffffffffffffffffffffffffff168152602001908152602001600020805480602002602001604051908101604052809291908181526020016000905b82821015610a685783829060005260206000200180546109db90611462565b80601f0160208091040260200160405190810160405280929190818152602001828054610a0790611462565b8015610a545780601f10610a2957610100808354040283529160200191610a54565b820191906000526020600020905b815481529060010190602001808311610a3757829003601f168201915b5050505050815260200190600101906109bc565b50505050905090565b828054610a7d90611462565b90600052602060002090601f016020900481019282610a9f5760008555610ae6565b82601f10610ab857805160ff1916838001178555610ae6565b82800160010185558215610ae6579182015b82811115610ae5578251825591602001919060010190610aca565b5b509050610af39190610c04565b5090565b6040518060400160405280606081526020016000151581525090565b828054610b1f90611462565b90600052602060002090601f016020900481019282610b415760008555610b8f565b82601f10610b525780548555610b8f565b82800160010185558215610b8f57600052602060002091601f016020900482015b82811115610b8e578254825591600101919060010190610b73565b5b509050610b9c9190610c04565b5090565b508054610bac90611462565b6000825580601f10610bbe5750610bdd565b601f016020900490600052602060002090810190610bdc9190610c04565b5b50565b5080546000825560020290600052602060002090810190610c019190610c21565b50565b5b80821115610c1d576000816000905550600101610c05565b5090565b5b80821115610c585760008082016000610c3b9190610ba0565b6001820160006101000a81549060ff021916905550600201610c22565b5090565b6000610c6f610c6a8461129d565b611278565b90508083825260208201905082856020860282011115610c8e57600080fd5b60005b85811015610cd857813567ffffffffffffffff811115610cb057600080fd5b808601610cbd8982610d9e565b85526020850194506020840193505050600181019050610c91565b5050509392505050565b6000610cf5610cf0846112c9565b611278565b905082815260208101848484011115610d0d57600080fd5b610d18848285611420565b509392505050565b600081359050610d2f816115ac565b92915050565b600082601f830112610d4657600080fd5b8135610d56848260208601610c5c565b91505092915050565b600081359050610d6e816115c3565b92915050565b600082601f830112610d8557600080fd5b8135610d95848260208601610ce2565b91505092915050565b600060408284031215610db057600080fd5b610dba6040611278565b9050600082013567ffffffffffffffff811115610dd657600080fd5b610de284828501610d74565b6000830152506020610df684828501610d5f565b60208301525092915050565b600081359050610e11816115da565b92915050565b600080600060608486031215610e2c57600080fd5b6000610e3a86828701610d20565b935050602084013567ffffffffffffffff811115610e5757600080fd5b610e6386828701610d74565b9250506040610e7486828701610e02565b9150509250925092565b60008060408385031215610e9157600080fd5b6000610e9f85828601610d20565b9250506020610eb085828601610e02565b9150509250929050565b600060208284031215610ecc57600080fd5b600082013567ffffffffffffffff811115610ee657600080fd5b610ef284828501610d74565b91505092915050565b60008060408385031215610f0e57600080fd5b600083013567ffffffffffffffff811115610f2857600080fd5b610f3485828601610d74565b925050602083013567ffffffffffffffff811115610f5157600080fd5b610f5d85828601610d35565b9150509250929050565b60008060408385031215610f7a57600080fd5b600083013567ffffffffffffffff811115610f9457600080fd5b610fa085828601610d74565b9250506020610fb185828601610e02565b9150509250929050565b6000610fc783836110eb565b905092915050565b6000610fdb838361118e565b905092915050565b6000610fee8261131a565b610ff88185611355565b93508360208202850161100a856112fa565b8060005b8581101561104657848403895281516110278582610fbb565b94506110328361133b565b925060208a0199505060018101905061100e565b50829750879550505050505092915050565b600061106382611325565b61106d8185611366565b93508360208202850161107f8561130a565b8060005b858110156110bb578484038952815161109c8582610fcf565b94506110a783611348565b925060208a01995050600181019050611083565b50829750879550505050505092915050565b6110d6816113ea565b82525050565b6110e5816113ea565b82525050565b60006110f682611330565b6111008185611377565b935061111081856020860161142f565b6111198161159b565b840191505092915050565b600061112f82611330565b6111398185611388565b935061114981856020860161142f565b6111528161159b565b840191505092915050565b600061116882611330565b6111728185611399565b935061118281856020860161142f565b80840191505092915050565b600060408301600083015184820360008601526111ab82826110eb565b91505060208301516111c060208601826110cd565b508091505092915050565b60006111d7828461115d565b915081905092915050565b600060208201905081810360008301526111fc8184610fe3565b905092915050565b6000602082019050818103600083015261121e8184611058565b905092915050565b600060208201905081810360008301526112408184611124565b905092915050565b600060408201905081810360008301526112628185611124565b905061127160208301846110dc565b9392505050565b6000611282611293565b905061128e8282611494565b919050565b6000604051905090565b600067ffffffffffffffff8211156112b8576112b761156c565b5b602082029050602081019050919050565b600067ffffffffffffffff8211156112e4576112e361156c565b5b6112ed8261159b565b9050602081019050919050565b6000819050602082019050919050565b6000819050602082019050919050565b600081519050919050565b600081519050919050565b600081519050919050565b6000602082019050919050565b6000602082019050919050565b600082825260208201905092915050565b600082825260208201905092915050565b600082825260208201905092915050565b600082825260208201905092915050565b600081905092915050565b60006113af82611416565b91506113ba83611416565b9250828210156113cd576113cc61150e565b5b828203905092915050565b60006113e3826113f6565b9050919050565b60008115159050919050565b600073ffffffffffffffffffffffffffffffffffffffff82169050919050565b6000819050919050565b82818337600083830152505050565b60005b8381101561144d578082015181840152602081019050611432565b8381111561145c576000848401525b50505050565b6000600282049050600182168061147a57607f821691505b6020821081141561148e5761148d61153d565b5b50919050565b61149d8261159b565b810181811067ffffffffffffffff821117156114bc576114bb61156c565b5b80604052505050565b60006114d082611416565b91507fffffffffffffffffffffffffffffffffffffffffffffffffffffffffffffffff8214156115035761150261150e565b5b600182019050919050565b7f4e487b7100000000000000000000000000000000000000000000000000000000600052601160045260246000fd5b7f4e487b7100000000000000000000000000000000000000000000000000000000600052602260045260246000fd5b7f4e487b7100000000000000000000000000000000000000000000000000000000600052604160045260246000fd5b6000601f19601f8301169050919050565b6115b5816113d8565b81146115c057600080fd5b50565b6115cc816113ea565b81146115d757600080fd5b50565b6115e381611416565b81146115ee57600080fd5b5056fea2646970667358221220abae75eb6e3e9c6cd2051432bb239d319cd602caf1296021b65ea3b174e570d364736f6c63430008040033",
  "linkReferences": {},
  "deployedLinkReferences": {}
}